:020000040800F2
:1000000000400020357E0008091A00080D1A00087B
:10001000251A0008271A0008291A00080000000005
:100020000000000000000000000000002B1A000883
:100030002D1A0008000000002F1A0008311A0008CD
:10004000857E0008857E0008857E0008857E000884
:10005000857E0008857E0008857E0008857E000874
:10006000857E0008857E0008857E0008391A000814
:10007000857E0008857E0008491A0008857E0008F4
:10008000857E0008857E0008591A0008857E0008D4
:10009000857E0008857E0008857E0008857E000834
:1000A000691A0008811A0008857E0008857E00080C
:1000B000857E00080000000000000000857E00082A
:1000C000857E0008857E0008857E0008000000000F
:1000D000857E0008911A0008857E0008857E00084C
:1000E000857E0008857E0008857E000800000000EF
:1000F0000000000000000000000000000000000000
:10010000000000000000000000000000857E0008E4
:100110000000000000000000857E000800000000D4
:1001200000000000000000000000000000000000CF
:1001300000000000000000000000000000000000BF
:10014000857E0008857E0008000000000000000099
:10015000000000000000000000000000000000009F
:10016000857E0008857E0008857E0008A11A0008AB
:10017000857E000800000000000000000000000074
:0801800000000000857E00086C
:1001880010B5054C237833B9044B13B10448AFF3C9
:1001980000800123237010BDA4010020000000008E
:1001A800E07E000808B5034B1BB103490348AFF3D1
:1001B800008008BD00000000A8010020E07E0008C3
:1001C8007BB972B90029BEBF00204FF0004106E09C
:1001D80008BF00281CBF6FF000414FF0FF3000F04F
:1001E800A7B9ADF1080C6DE904CE002909DB002B95
:1001F8001ADB00F035F8DDF804E0DDE9022304B08D
:100208007047404261EB4101002B1BDB00F028F8EE
:10021800DDF804E0DDE9022304B0404261EB41016E
:10022800524263EB43037047524263EB430300F0CF
:1002380017F8DDF804E0DDE9022304B0404261EB81
:1002480041017047524263EB430300F009F8DDF8BF
:1002580004E0DDE9022304B0524263EB4303704734
:100268002DE9F047089D04468E46002B4DD18A4261
:10027800944669D9B2FA82F252B101FA02F3C2F194
:10028800200120FA01F10CFA02FC41EA030E944025
:100298004FEA1C48210CBEFBF8F61FFA8CF708FB46
:1002A80016E341EA034306FB07F199420AD91CEB1E
:1002B800030306F1FF3080F01F81994240F21C8150
:1002C800023E63445B1AA4B2B3FBF8F008FB103398
:1002D80044EA034400FB07F7A7420AD91CEB0404CD
:1002E80000F1FF3380F00A81A74240F2078164449D
:1002F800023840EA0640E41B00261DB1D440002322
:10030800C5E900433146BDE8F0878B4209D9002D85
:1003180000F0EF800026C5E9000130463146BDE80F
:10032800F087B3FA83F6002E4AD18B4202D3824279
:1003380000F2F980841A61EB030301209E46002D28
:10034800E0D0C5E9004EDDE702B9FFDEB2FA82F27D
:10035800002A40F09280A1EB0C014FEA1C471FFADB
:100368008CFE0126200CB1FBF7F307FB131140EAC2
:1003780001410EFB03F0884208D91CEB010103F18F
:10038800FF3802D2884200F2CB804346091AA4B251
:10039800B1FBF7F007FB101144EA01440EFB00FE25
:1003A800A64508D91CEB040400F1FF3102D2A6458A
:1003B80000F2BB800846A4EB0E0440EA03409CE729
:1003C800C6F12007B34022FA07FC4CEA030C20FAD6
:1003D80007F401FA06F31C43F9404FEA1C4900FAF6
:1003E80006F3B1FBF9F8200C1FFA8CFE09FB181173
:1003F80040EA014108FB0EF0884202FA06F20BD9E6
:100408001CEB010108F1FF3A80F08880884240F235
:100418008580A8F102086144091AA4B2B1FBF9F079
:1004280009FB101144EA014100FB0EFE8E4508D974
:100438001CEB010100F1FF346CD28E456AD90238F9
:10044800614440EA0840A0FB0294A1EB0E01A142DE
:10045800C846A64656D353D05DB1B3EB080261EB4C
:100468000E0101FA07F722FA06F3F1401F43C5E926
:10047800007100263146BDE8F087C2F12003D8405C
:100488000CFA02FC21FA03F3914001434FEA1C479E
:100498001FFA8CFEB3FBF7F007FB10360B0C43EA90
:1004A800064300FB0EF69E4204FA02F408D91CEB40
:1004B800030300F1FF382FD29E422DD9023863443E
:1004C8009B1B89B2B3FBF7F607FB163341EA0341DE
:1004D80006FB0EF38B4208D91CEB010106F1FF382D
:1004E80016D28B4214D9023E6144C91A46EA004624
:1004F80038E72E46284605E70646E3E61846F8E6B6
:100508004B45A9D2B9EB020864EB0C0E0138A3E7FE
:100518004646EAE7204694E74046D1E7D0467BE7DF
:10052800023B614432E7304609E76444023842E757
:10053800704700BF40F38F207047000008B572B6BF
:10054800642003F03FFC2021014804F0A9FAF7E7F2
:100558000004004800B59DB02822002112A807F029
:10056800B3FC00210D910E910F911091119134223D
:10057800684607F0A9FC012312934FF4A0221392B6
:100588001693022319934FF480331A934FF4E01310
:100598001B9312A803F02AFC08BB0F230D9302211A
:1005A8000E9100230F934FF48062109211930DA8BF
:1005B80003F06CFFA8B90D4B00930123029310239D
:1005C800039300220C924FF48073089309920693C8
:1005D800684604F061F830B91DB05DF804FBFFF718
:1005E800ADFFFFF7ABFFFFF7A9FF00BFA1100600A3
:1005F80030B583B003F0C2FBFFF7ACFF00F0A4F9FD
:1006080000F070F800F0BCF800F0C0F900F01CFB36
:1006180000F01EFA01F060FA00F042FA00F0ACFBBC
:100628004EF6602001F0CEF800F056FD0322254971
:10063800254804F049FE09E0204600F06BFD234BF5
:100648001870234B1B68DA6A224B1A802248002351
:100658000193FF23009310230246082100F0FEFBBC
:1006680084B21A4B1B78002BE6D01C4D284600F0AC
:10067800E3FEA8684042FFF75DFF194B1A68104473
:100688001860642801DD50221A60154B1B684F2B37
:1006980002DC134B3C221A602246114B19680F4B9F
:1006A800188801F00BF9094B1B782BB10122202186
:1006B800094804F0F0F9C4E700222021064804F0B4
:1006C800EAF9BEE78C04002008020020C2010020DD
:1006D800F8020020C0010020000400486C0400203B
:1006E8000000002070B588B0002403940494059499
:1006F80006940794204B5A6942F480025A615A6959
:1007080002F480020092009A5A6942F400325A6157
:100718005A6902F400320192019A5A6942F480221D
:100728005A615B6903F480230293029B134D2246AE
:100738002021284604F0AFF940F61C4303930494A3
:100748000126059603A9284604F0C0F82023039340
:1007580004960594069403A9284604F0B7F84FF4C4
:100768008053039304960594069403A9284604F03D
:10077800ADF808B070BD00BF00100240000400488A
:1007880010B590B000240A940B940C940D940E9418
:100798000F9428222146684607F096FB34484FF00C
:1007A800A04303604460846001230361447680F8B9
:1007B80020404FF48062C2624FF420728262C460AB
:1007C8000322C26180F83030082343610476446311
:1007D80004F088FC00283BD10B230A9301230B93D8
:1007E80000230D9304220C920E930F930AA920481C
:1007F80004F0E0FE00282ED10A230A9303230B936A
:100808000AA91B4804F0D6FE40BB02230A930B93A7
:100818000AA9174804F0CEFE18BB0C230093012246
:100828000192002303930692072102914021099126
:1008380008928DF81D308DF81C308DF81E30059308
:10084800049369460A4805F057F868B910B010BD16
:10085800FFF774FEC0E7FFF771FECDE7FFF76EFE06
:10086800D3E7FFF76BFED8E7FFF768FEEEE700BFB8
:100878000802002030B589B0002303930493059340
:10088800069307930368B3F1A04F01D009B030BDB8
:10089800044603F1704303F504335A6942F0805269
:1008A8005A615A6902F080520092009A5A6942F4D9
:1008B80000325A615A6902F400320192019A5A6967
:1008C80042F480225A615B6903F480230293029BFD
:1008D800CF2303930325049503A94FF0904003F019
:1008E800F5FF039504950025059503A9134803F022
:1008F800EDFF1348134B0360456085608023C36098
:100908004FF4807303614FF4806343612023836154
:100918004FF40053C36104F0F5F858B9084BA363CA
:100928005C6200221146122004F032FA122004F010
:100938003FFAABE7FFF702FEF0E700BF000400480C
:10094800C40100200800024000B583B00E4B5A696C
:1009580042F001025A615B6903F001030193019BB4
:10096800002211460B2004F013FA0B2004F020FAA1
:10097800002211460E2004F00BFA0E2004F018FA9B
:1009880003B05DF804FB00BF0010024008B5124830
:10099800124B0360124B4360002383600122C26044
:1009A800036143618361C361036204F023FA50B9B0
:1009B8000021094804F07CFA40B90021064804F0F7
:1009C800A5FA30B908BDFFF7B9FDF1E7FFF7B6FDA5
:1009D800F3E7FFF7B3FDF5E75802002000540040A5
:1009E800D38D801010B588B000230393049305932A
:1009F800069307930268134B9A4201D008B010BDC2
:100A0800114C636943F480236361636903F48023B1
:100A18000193019B4FF44073039312230493032320
:100A280006930423079303A9084803F04FFFE369DB
:100A380043F40013E361E36903F400130293029B98
:100A4800DCE700BF005400400010024000040048EA
:100A580000B585B000230193029303930E480F4A13
:100A680002606B22426083604FF6FF72C26083614E
:100A780005F088FB50B900230193039301A90648A8
:100A880005F04CFF28B905B05DF804FBFFF756FDEB
:100A9800F1E7FFF753FDF6E7F802002000100040E9
:100AA80000B589B000230493059306930793019337
:100AB800029303931448154A0260436083604FF61B
:100AC800FF72C26003614361836105F05BFB90B90B
:100AD8004FF48053049304A90B4805F09BFC68B9B4
:100AE80000230193039301A9074805F017FF40B9B4
:100AF80009B05DF804FBFFF721FDE9E7FFF71EFDEC
:100B0800EEE7FFF71BFDF3E7AC02002000400140D1
:100B180000B585B00368224A934208D0214A93421F
:100B280020D0214A934228D005B05DF804FB1F4B22
:100B38009A6942F400629A619B6903F40063019325
:100B4800019B00221146182004F022F9182004F015
:100B58002FF900221146192004F01AF9192004F07F
:100B680027F9E1E7114BDA6942F01002DA61DB6933
:100B780003F010030293029BD6E70C4B9A6942F4E8
:100B880080329A619B6903F480330393039B0022AC
:100B98001146182004F0FCF8182004F009F9C3E7FE
:100BA800002C0140001000400040014000100240AD
:100BB800F0B589B000230393049305930693079334
:100BC80002681F4B9A4201D009B0F0BD03F5644397
:100BD8005A6942F480225A615A6902F480220192C9
:100BE800019A5A6942F400325A615B6903F400338E
:100BF8000293029B4FF4C0430393022504950626F3
:100C08000796104F03A9384603F060FE4FF40043DF
:100C1800039304950024059406940423079303A9D9
:100C2800384603F053FE4FF4E063039304950594AC
:100C38000694079603A94FF0904003F047FEC3E7D8
:100C4800002C01400004004810B59AB00024169406
:100C58001794189419941394149415940C940D944F
:100C68000E940F941094119412942C22214601A8EA
:100C780007F02AF93E483F4B036044602023836015
:100C88004FF6FF73C360046106234361846105F076
:100C980079FA002854D14FF48053169316A9344892
:100CA80005F0B8FB00284ED1314805F09BFA002822
:100CB8004CD1002313934FF40013149380231593FE
:100CC80013A92B4805F02AFE002842D160230C9373
:100CD8004FF400430D9300220E920F92109211923E
:100CE80012920CA9224805F0EBFA002834D104220C
:100CF8000CA91F4805F0E4FA002830D108220CA9F5
:100D08001B4805F0DDFA68BB0023019302930393A7
:100D180004934FF4805205924FF4005206920793C1
:100D280008934FF0007209920A930B9301A9104897
:100D380005F02CFEC8B90E48FFF73AFF1AB010BDEF
:100D4800FFF7FCFBA7E7FFF7F9FBADE7FFF7F6FBBB
:100D5800AFE7FFF7F3FBB9E7FFF7F0FBC7E7FFF7EC
:100D6800EDFBCBE7FFF7EAFBCEE7FFF7E7FBE2E7B0
:100D780044030020002C014008B50B480B4B0360CE
:100D88004FF47A33436000238360C36003610C220D
:100D980042618361C3610362436206F0BEF900B930
:100DA80008BDFFF7CBFBFBE7D40300200038014068
:100DB80010B588B000230393049305930693079313
:100DC8000268224B9A4201D008B010BD044603F5D0
:100DD80058439A6942F480429A619A6902F48042BF
:100DE8000192019A5A6942F480225A615B6903F4BC
:100DF80080230293029BC0230393022304930323BB
:100E080006930723079303A9114803F05FFD1148D0
:100E1800114B036010234360002383608022C2606B
:100E2800036143618361C36103F06CFE58B9094BE8
:100E380023675C6200221146252003F0A9FF2520C4
:100E480003F0B6FFC0E7FFF779FBF0E70038014091
:100E58000004004890030020440002402DE9F047B8
:100E680015469946089F099E3E4C94F8008003F069
:100E78000BFE40EA48002070DFF8208198F800A0B7
:100E88004946284603F000FE40EA4A00C0B288F806
:100E980000002378344A127802BB344B344A1A6073
:100EA800344B354A1A60314B1B68344A93424ED052
:100EB800334A934250D0334B1B68BB4201DD314B60
:100EC8001F60304B1B68B34201DA2E4B1E60264B65
:100ED80001221A702B4B1868BDE8F08703F00F0346
:100EE80000F00F00234A126823498A420BD08A4235
:100EF80012D025498A4218D024498A421ED01B4B59
:100F0800234A1A60CFE7032BF1D1184B214A1A6004
:100F1800184B1D4A1A60C6E70E28EAD1134B1E4A21
:100F28001A60144B194A1A60BDE70328E4D10F4B25
:100F3800124A1A600F4B104A1A60B4E70E2BDED122
:100F48000A4B0F4A1A600B4B0B4A1A60ABE70D4964
:100F58000A6801320A60ABE70A4A1368013B13606A
:100F6800A9E700BF6A040020680400206404002088
:100F7800F87E000860040020047F0008587F0008FD
:100F8800647F00085C0400201C7F0008447F000880
:100F9800707F00080C7F0008307F0008690400207B
:100FA800B0F5B47F02D3A0F5B47080B2592816D931
:100FB800A0F15A039BB2592B15D9A0F1B4039BB2E7
:100FC800592B16D9A0F587739BB2592B18D8C0F5A1
:100FD800B4700C4B53F82000404200B27047094BE4
:100FE80033F920007047C0F1B400064B33F92000F4
:100FF8007047B438034B53F82000404200B27047A2
:1010080000207047787F000800F15A039BB2B3F5BF
:10101800B47F02D3A0F5877083B2592B16D9A3F1F8
:101028005A0292B2592A15D9A3F1B40292B2592A96
:1010380016D9A3F5877292B2592A18D8C3F5B47392
:101048000C4A52F82300404200B27047094A32F96C
:1010580023007047C3F1B403064A32F923007047EE
:10106800B43B044A52F82300404200B270470020C3
:10107800704700BF787F000810B50C4603680B6006
:1010880041688368C91A40F2ED6200238802891515
:10109800FFF796F8606010BD2DE9F04107460D4650
:1010A8001FFA82F84046FFF7AFFF06467C6800FB50
:1010B80004F44046FFF774FF03463A6802FB104405
:1010C800A4122C6038687A6802FB03F300FB06332D
:1010D8009B126B60BDE8F0810D4B1B68196A41F2E9
:1010E8001112114208D1196A40F24442114203D147
:1010F8001A6822F001021A60054B1B684FF6FF724E
:10110800DA6206229A621A6842F001021A6070478F
:10111800F80200202DE9F84304469E4B1B7853B98A
:101128009D4B1B684FF4B472DA6244F620629A62EF
:10113800984B01221A70984B1B685B6A9BB2974ABE
:101148001380974A1380974E30784500DFF86C82F9
:101158000421404603F098FC40B228433070924D79
:10116800287847004FF48061404603F08DFC40B278
:10117800384328708D4F3B784FEA43094FF400619C
:10118800404603F081FC43B243EA0903DBB23B70FB
:10119800317801F00F01032914BF002001200E2926
:1011A80014BF002601262A7802F00F02032A14BF72
:1011B800002501250E2A14BF0027012703F00F037D
:1011C800032B14BF4FF0000E4FF0010E0E2B14BF6F
:1011D8004FF0000C4FF0010C0E290FD003290DD051
:1011E80000210E2A36D0032A34D00E2B58D0032BD8
:1011F80056D0002978D100231946EEE06C490978C9
:1012080031BB6B494FF0010881F800800021DFF8FD
:10121800A48188F80010DFF8A08188F8001060B970
:1012280076B97DB987B9BEF1000F0FD14FEA8C01AD
:10123800BCF1000F02D0012100E00121C9B2D0E7C2
:101248000121FBE70121F9E70121F7E70121F5E792
:101258000021C6E7574A1278002AC6D154490A70B5
:1012680054494FF0010881F8008053490A7060B969
:1012780076B97DB987B9BEF1000F0FD14FEA8C015D
:10128800BCF1000F02D0414600E00121C9B2ACE731
:101298000121FBE70121F9E70121F7E70121F5E742
:1012A800454B1B78002BA4D1414A1370414A137057
:1012B800414B01221A7060B976B97DB987B9BEF180
:1012C800000F0FD14FEA8C01BCF1000F02D011467C
:1012D80000E00121C9B28CE70121FBE70121F9E710
:1012E8000121F7E70121F5E74FF48051334803F076
:1012F800D7FB334B1B88294A128893423DD2D31A15
:1013080030490B802E4B1A802C4E4FF4006130462A
:1013180003F0BAFB85004FF48061304603F0B4FB5C
:1013280045EA40056DB20421304603F0ADFB43B2F7
:101338002B43DBB2234A12882E3A92B21C2A19D8C0
:10134800214D35F81310154A128801FB02F20131BC
:1013580092FBF1F292B21D4820F8132025F81310E1
:101368001B49097830F811108A420CD9521A1949C8
:1013780021F81320164A13703DE7D31A03F5B47306
:1013880010490B80BEE7521A02F5B472114921F8D0
:101398001320EFE7C5040020F8020020D60400203F
:1013A8006C040020980400209A0400209C0400206B
:1013B800C6040020C8040020CA0400200004004815
:1013C800CC040020D40400200400002014000020D5
:1013D800CE040020A00400200133072B08DC134AA8
:1013E80032F813C0BCF1FF0FF6D9013189B2F3E727
:1013F800062916D00025224600210D4B188800F03A
:101408005DFA2846BDE8F8830133072B0BDC074A51
:1014180032F81320FF2AF7D8064AFF2122F81310C2
:10142800F2E70023F1E70125E5E700BF040000200B
:10143800D6040020140000202DE9F0470546AA4BE9
:101448001B78002B00F09D80A84B1B685C6AA84F96
:1014580038784600DFF8C0A20421504603F014FB98
:1014680040B230433870A34E30784FEA40084FF40A
:101478008061504603F008FB40B240EA0800307033
:10148800DFF8A08298F800304FEA43094FF4006172
:10149800504603F0F9FA43B243EA0903DBB288F88D
:1014A8000030397801F00F01032914BF0020012012
:1014B8000E2914BF00270127327802F00F02032AF1
:1014C80014BF002601260E2A14BF4FF0000C4FF05F
:1014D800010C03F00F03032B14BF4FF0000E4FF065
:1014E800010E0E2B14BF4FF000084FF001080E2913
:1014F8004DD003294BD000210E2A76D0032A74D070
:101508000E2B00F09A80032B00F09780002940F002
:10151800BB80794B1A78794B33F81210FF2900F009
:10152800198190B2764B1B8898420ED06F4E366860
:10153800376917F0010F00F0BF806FF001033361C6
:10154800704B01271F70002373626E4B1B78002BB2
:1015580000F0EA8029806A4B18802A886A4B19684B
:10156800531AB3F5967F80F2158103F5B4731BB255
:10157800052B40F31A8105316980634B1A60BDE879
:10158800F087FFF765FA584B01221A705CE75F494C
:10159800097841BB5D494FF0010981F800900021AD
:1015A800DFF86C9189F80010DFF8689189F800106D
:1015B80070B987B98EB9BCF1000F10D1BEF1000F18
:1015C8000FD14FEA8801B8F1000F02D0012100E0E5
:1015D8000121C9B290E70121FBE70121F9E70121C7
:1015E800F7E70121F5E7002186E7494A1278002A42
:1015F80086D146490A7046494FF0010981F80090A2
:1016080044490A7070B987B98EB9BCF1000F10D17E
:10161800BEF1000F0FD14FEA8801B8F1000F02D0D8
:10162800494600E00121C9B26AE70121FBE701212F
:10163800F9E70121F7E70121F5E7364B1B78002B85
:101648007FF464AF314A1370314A1370314B012271
:101658001A7070B987B98EB9BCF1000F10D1BEF1FC
:10166800000F0FD14FEA8801B8F1000F02D01146E0
:1016780000E00121C9B249E70121FBE70121F9E7AF
:101688000121F7E70121F5E7234F4FF400613846C0
:1016980003F0FAF986004FF48061384603F0F4F954
:1016A80046EA400676B20421384603F0EDF940B226
:1016B8000643114B1E702CE7184F37F813C0184F0C
:1016C8003F88B7EB5C0FFFF43EAF776ABFB2DFF835
:1016D80050C0ACF80070DFF844C02CF81370094B08
:1016E80000271F702FE700BFC4040020F802002065
:1016F800990400209B0400209E0400201400002070
:10170800C004002024000020D0040020C7040020CA
:10171800C9040020CB04002000040048B0040020C5
:10172800C20400209D040020214E36F81270A3B296
:1017380007FB03F31F4C34F8124093FBF4F30B44FC
:101748009BB22B8036F812208C18A3427FF703AF88
:101758002C8000E7184B1988184B33F81110184BD8
:101768001B780BB12980F8E6114830F81260A3B253
:1017780006FB03F30F4C34F8124093FBF4F30B44CD
:101788009BB22B8030F81220881883427FF7E5AE91
:101798002880E2E6B3F5967F04DD531AA3F5B47307
:1017A8001BB2E5E6531A1BB2E2E66A80E5E600BF23
:1017B800A0040020B0040020C00400201400002071
:1017C8002400002010B5192003F0F2FA0022114677
:1017D800192003F0DDFA1A4C2268D36843F001039C
:1017E800D3600021204604F0A5FE0421204604F021
:1017F800A1FE0821204604F03DFF1021204604F0F8
:1018080099FE1421204604F095FE0021204605F09B
:1018180017F80421204605F013F80821204605F0A2
:101828000FF8084B5A6C22F0FF025A645A6C42F0C7
:1018380080025A644FF49662DA6262B610BD00BF45
:1018480044030020002C014038B5154B1A88154B6D
:10185800DA63154A12889A63144A12885A63144C38
:10186800226A1449144B01FB0232120B6261626A4C
:1018780001FB0232120BA261A26A01FB02331B0BAD
:10188800E36104F10C05294604F11400FFF7F4FBA9
:10189800214631F8042B2846FFF7FEFB38BD00BF70
:1018A800D8040020002C0140DA040020DC040020C9
:1018B8006C040020B0AD0100A06B15F30144B1F534
:1018C800B47F01DBA1F5B471002937DB8BB2464840
:1018D800A0FB03035B0945480380B32931DC444B73
:1018E80033F8113002FB03F34FF4167000FB03F3D7
:1018F8009B0C03443F480380772932DC01F13C0309
:101908003B4830F8133002FB03F34FF4167000FB2A
:1019180003F39B0CC31A384803803B2944DC783115
:10192800334B33F8113003FB02F24FF4167303FB09
:1019380002F2920C1A44314B1A80704701F5B471C7
:10194800C4E7A1F1B4032A4830F8133002FB03F3CB
:101958004FF4167000FB03F39B0CC31A2548038051
:10196800CAE7B1F5967F0FDAA1F17803204830F87D
:10197800133002FB03F34FF4167000FB03F39B0CC8
:1019880003441D480380C8E7A1F59673184830F84A
:10199800133002FB03F34FF4167000FB03F39B0CA8
:1019A800C31A15480380B8E7EF290EDC3C39104B01
:1019B80033F8113002FB03F34FF4167202FB03F302
:1019C8009B0CD31A0D4A13807047F039084B33F833
:1019D800113002FB03F34FF4167202FB03F39B0C66
:1019E8001344064A1380704789888888DE040020DB
:1019F800E4800008D8040020DA040020DC04002079
:101A0800FEE7000008B5642002F0DCF92021024856
:101A180003F046F8F7E700BF00040048FEE7FEE7DA
:101A2800FEE770477047704708B502F0B9F908BD7E
:101A380008B5024803F00DF908BD00BFC401002035
:101A480008B5024803F005F908BD00BF900300205F
:101A580008B5024803F0A8FC08BD00BF0802002032
:101A680008B5034804F080FA024804F07DFA08BD7E
:101A780044030020AC02002008B5024804F074FAC0
:101A880008BD00BF4403002008B5024805F00CF863
:101A980008BD00BFD403002008B5024801F06BFF61
:101AA80008BD00BFC40C002082B00A4B9A6942F0FE
:101AB80001029A619A6902F001020092009ADA69B9
:101AC80042F08052DA61DB6903F080530193019B95
:101AD80002B070470010024008B500220F491048B4
:101AE80005F058FB70B90F490D4805F06AFB60B95D
:101AF8000D490B4806F06DF950B9094805F068FB27
:101B080048B908BDFEF71AFDEDE7FEF717FDEFE748
:101B1800FEF714FDF1E7FEF711FDF2E75C00002087
:101B2800E0040020600100207800002012230B80D0
:101B3800004870474800002004230B800048704785
:101B480044000020002393421ED200B510E00CF19F
:101B5800370C01F813C000014FEA430C0CF1010CDB
:101B68004FF0000E01F80CE00133DBB2934209D2CA
:101B78004FEA107CB0F1204FE9D20CF1300C01F89B
:101B880013C0E8E75DF804FB7047000038B50B4B5D
:101B9800D3F8AC07D3F8B047D3F8B437C01800D19E
:101BA80038BD074D08222946FFF7CCFF042205F16E
:101BB80010012046FFF7C6FFF2E700BF00F0FF1F45
:101BC8002A00002008B51A230B80FFF7DFFF014821
:101BD80008BD00BF2800002008B50A4628B90549F5
:101BE800054805F04CFF034808BD0249024805F0C6
:101BF80046FFF8E7A40700204C82000810B50A4603
:101C0800034C2146034805F03AFF204610BD00BFAB
:101C1800A40700206482000808B50A4628B90549C7
:101C2800054805F02CFF034808BD0249024805F0A5
:101C380026FFF8E7A40700207882000808B50A46BE
:101C480028B90549054805F01AFF034808BD0249A7
:101C5800024805F014FFF8E7A40700208482000872
:101C6800002070470020704710B50146044C2046FC
:101C780006F0BEF8204606F0C1F8002010BD00BFEF
:101C8800E004002010B5064C00220649204606F064
:101C9800A7F80549204606F0ABF8002010BD00BFA4
:101CA800E0040020A4090020240A0020022805D806
:101CB800DFE800F0050402000120704702207047A9
:101CC8000268104B9A4200D0704700B583B003F504
:101CD800DA33DA6942F40002DA61DB6903F40003FB
:101CE8000193019B084A136843F020031360002204
:101CF80011464B2003F04CF84B2003F059F803B081
:101D08005DF804FB005C00400000014008B500F5E8
:101D18002C71D0F8E80205F073FA08BD08B501EB9C
:101D2800810300EBC303D3F87C21D0F8E80205F067
:101D380094FA08BD08B501EB810300EBC303DA6B25
:101D4800D0F8E80205F0CFFA08BD08B5D0F8E802E7
:101D580005F070FB08BD10B504468368022B09D155
:101D68000121D4F8E80205F04EFBD4F8E80205F0AA
:101D780022FB10BDFEF7E2FBF2E7000010B50446B7
:101D8800D0F8E80205F042FBA36923B1024A1369BF
:101D980043F00603136110BD00ED00E008B5D0F86C
:101DA800E80205F03CFB08BD10B504461D48C0F824
:101DB800E842C4F8C0021C4B0360082343600223B6
:101DC8008360036100238361036201F0A8F830BBDC
:101DD800182300221146D4F8C00201F08DFF5823C1
:101DE80000228021D4F8C00201F086FFC02300221F
:101DF8008121D4F8C00201F07FFF4FF488730022DC
:101E08000121D4F8C00201F077FF4FF4807300225B
:101E18008221D4F8C00201F06FFF002010BDFEF748
:101E28008DFBD5E7C40C0020005C004008B5D0F855
:101E3800C00201F0D9F8FFF739FF08BD08B594468C
:101E48001A466346D0F8C00201F02EFEFFF72EFFB7
:101E580008BD08B5D0F8C00201F064FEFFF726FF00
:101E680008BD08B5D0F8C00201F0D6FEFFF71EFF86
:101E780008BD08B5D0F8C00201F003FFFFF716FF50
:101E880008BDD0F8C03211F0800F08D101F07F01F1
:101E980001EB810103EBC10393F86A01704701F07C
:101EA8007F01013101EB810103EBC1039878704791
:101EB80008B5D0F8C00201F04AFDFFF7F7FE08BDEB
:101EC80008B5D0F8C00201F085FEFFF7EFFE08BDA7
:101ED80008B5D0F8C00201F057FEFFF7E7FE08BDCD
:101EE80008B5D0F8C00201F06CFE08BD0048704784
:101EF800A40A00207047704703460020A3F8440056
:101F08004FF43F42A3F840207047B0F8403023F424
:101F18007C535B045B0CA0F840300020704784B011
:101F2800844601A880E80E000123ACF84030002068
:101F3800ACF84000ACF84400ACF8500004B070476E
:101F480010B5034691F800C030F82C2092B222F464
:101F5800EC4222F0700292B2C878032861D8DFE818
:101F680000F0555C0258002048F2800E42EA0E024A
:101F780023F82C2091F800C033F82C2092B222F4D8
:101F8800E04222F070024CEA020242EA0E0223F812
:101F98002C200A7B002A40F0DC804A78002A51D0A5
:101FA800B3F8502013FA82F20C7802EBC402B1F8AD
:101FB80006C04FEA5C0C4FEA4C0CA2F800C40C783F
:101FC80033F8242012F0400F0CD033F8242092B2BA
:101FD80022F4E04222F0700242F4004242F0C002D1
:101FE80023F82420CA78012A1DD0097833F8212043
:101FF80092B222F4E04222F0400282F0200242F43F
:10200800004242F0800223F8212017E142F40072D6
:10201800AAE742F4C0620020A6E742F480620020EA
:10202800A2E70120A0E7097833F8212092B222F430
:10203800E04222F0400242F4004242F0800223F8DB
:102048002120FBE0B3F8502013FA82F20C7802EB5F
:10205800C402B1F806C04FEA5C0C4FEA4C0CA2F877
:1020680004C4B3F8502013FA82F20C7802EBC402CD
:10207800B2F806C4CCF3090CA2F806C40C693E2CCD
:1020880039D94FEA541E14F01F0F01D10EF1FF3E4B
:10209800B2F806C41FFA8CFC4FEA8E2E1FFA8EFE89
:1020A8004CEA0E0C4CF4004CA2F806C40C7833F839
:1020B800242012F4804F0CD033F8242092B222F45A
:1020C800E04222F0700242F4404242F0800223F8DB
:1020D8002420097869BB33F8212092B222F4804287
:1020E80022F0700282F4405242F4004242F0800230
:1020F80023F82120A2E04CB9B2F806446FEA444420
:102108006FEA5444A4B2A2F80644CFE74FEA540C4D
:1021180014F0010F01D00CF1010CB2F80644A4B27E
:102128004FEA8C2C1FFA8CFC44EA0C04A2F80644F3
:10213800BCE733F8212092B222F4804222F07002E8
:1021480082F4005242F4004242F0800223F8212037
:1021580074E0CA78022A72D00C7833F8242092B23C
:1021680022F4E24222F0700242F4004242F080027D
:1021780023F82420B3F8502013FA82F291F800C013
:1021880002EBCC02B1F808C04FEA5C0C4FEA4C0CE9
:10219800A2F800C4B3F8502013FA82F291F800C0F4
:1021A80002EBCC02B1F80AC04FEA5C0C4FEA4C0CC7
:1021B800A2F804C44A78002A50D10C7833F82420B5
:1021C80012F4804F0CD033F8242092B222F4E0426B
:1021D80022F0700242F4404242F0800223F82420A8
:1021E8000C7833F8242012F0400F0CD033F8242058
:1021F80092B222F4E04222F0700242F4004242F02D
:10220800C00223F8242091F800C033F82C2092B2A1
:1022180022F4804222F0700282F4405248F2800494
:10222800224323F82C20097833F8212092B222F493
:10223800E04222F04002224323F8212010BD0C780E
:1022480033F8242092B222F4E04222F0700242F4E1
:10225800014242F0800223F824208BE70C7833F8FF
:10226800242012F4804F0CD033F8242092B222F4A8
:10227800E04222F0700242F4404242F0800223F829
:1022880024200C7833F8242012F0400F0CD033F8B7
:10229800242092B222F4E04222F0700242F400427A
:1022A80042F0C00223F82420CA78012A1ED00C78F4
:1022B80033F8242092B222F4E04222F0400282F065
:1022C800200242F4004242F0800223F824200978D8
:1022D80033F8212092B222F4804222F0700242F4B4
:1022E800004242F0800223F82120A7E70C7833F857
:1022F800242092B222F4E04222F0400242F400424A
:1023080042F0800223F82420E1E70B7B002B46D122
:102318004B7813B30A7830F8223013F0400F0CD002
:1023280030F822309BB223F4E04323F0700343F4E7
:10233800004343F0C00320F822300A7830F82230F6
:102348009BB223F4E04323F0400343F4004343F0FB
:10235800800320F82230002070470A7830F82230B5
:1023680013F4804F0CD030F822309BB223F4E043B2
:1023780023F0700343F4404343F0800320F82230F5
:102388000A7830F822309BB223F4804323F070039C
:1023980043F4004343F0800320F82230DBE74B7816
:1023A800002B4ED10A7830F8223013F4804F0CD02D
:1023B80030F822309BB223F4E04323F0700343F457
:1023C800404343F0800320F822300A7830F8223066
:1023D80013F0400F0CD030F822309BB223F4E043C6
:1023E80023F0700343F4004343F0C00320F8223085
:1023F8000A7830F822309BB223F4E04323F07003CC
:1024080043F4004343F0C00320F822300A7830F840
:1024180022309BB223F4804323F0700348F2800CEF
:1024280043EA0C0320F822300A7830F822309BB2B5
:1024380023F4E04323F0400343EA0C0320F822305E
:1024480089E70A7830F8223013F4804F0CD030F83E
:1024580022309BB223F4E04323F0700343F440435B
:1024680043F0800320F822300A7830F8223013F045
:10247800400F0CD030F822309BB223F4E04323F015
:10248800700343F4004343F0C00320F822300A7875
:1024980030F822309BB223F4E04323F0700343F476
:1024A800404343F0800320F822300A7830F8223085
:1024B8009BB223F4E04323F0400348F2800C43EA44
:1024C8000C0320F822300A7830F822309BB223F42B
:1024D800804323F0700343EA0C0320F822303AE7E4
:1024E8004B788BB10A7830F822309BB223F4E04362
:1024F80023F0400383F0100343F4004343F08003C8
:1025080020F82230002070470A7830F822309BB239
:1025180023F4804323F0700383F4805343F400438F
:1025280043F0800320F82230ECE70B7B002B4BD1E3
:102538004B7833B30A7830F8223013F0400F0CD0C0
:1025480030F822309BB223F4E04323F0700343F4C5
:10255800004343F0C00320F82230CB78012B33D05E
:102568000A7830F822309BB223F4E04323F040038A
:1025780083F0200343F4004343F0800320F8223023
:1025880022E00A7830F8223013F4804F0CD030F86B
:1025980022309BB223F4E04323F0700343F440431A
:1025A80043F0800320F822300A7830F822309BB2BA
:1025B80023F4804323F0700383F4405343F400432F
:1025C80043F0800320F822300020704711B980239F
:1025D800A0F84C300020704700207047B0F8440045
:1025E80080B2704701335B08024402F5806208E05C
:1025F800087891F801C040EA0C2022F8020B023159
:10260800013B002BF4D1704770B505460C464A785B
:10261800012A3BD00B7B002B40F0A6828B690A690C
:10262800934240F284829B1A8B61B5F8503015FAB8
:1026380083F3217803EBC103B3F80614C1F309014E
:10264800A3F806143E2A40F27682510912F01F0FB1
:1026580000D10139B3F8062492B2890289B20A433B
:1026680042F40042A3F80624227835F822309BB2BF
:1026780023F4804323F0700383F4405343F400436E
:1026880043F0800325F82230002070BD8E69096967
:102698008E4200D90E46237B73B3E378022B4DD0CC
:1026A800236A9B1B2362237835F8231011F0400F0F
:1026B80000F0F581002A40F0E281B5F8502015FAC3
:1026C80082F202EBC303B3F80624C2F30902A3F8AB
:1026D80006243E2E40F2BA81710916F01F0F00D170
:1026E8000139B3F8062492B2890289B20A4342F446
:1026F8000042A3F80624CBE1B6B23346E28861690A
:102708002846FFF76FFFB5F8503015FA83F32278A3
:1027180003EBC203A3F80264227835F822309BB297
:1027280023F4E04323F0400383F0300343F40043F1
:1027380043F0800325F822300020A6E7236A994257
:1027480080F06681227835F822309BB223F4E0438A
:1027580023F0700343F4014343F0800325F822304B
:10276800236A9B1B2362237835F8232012F0400F3D
:1027780000F0A7806278B2BBB5F8502015FA82F253
:1027880002EBC303B3F80624C2F30902A3F8062434
:102798003E2E0FD9710916F01F0F00D10139B3F879
:1027A800062492B2890289B20A4342F40042A3F88D
:1027B80006241AE04EB9B3F806246FEA42426FEADB
:1027C800524292B2A3F806240FE0720816F0010FE5
:1027D80000D00132B3F8061489B2920292B20A43C9
:1027E800A3F8062401E0012A30D0B3B262896169F6
:1027F8002846FFF7F7FE636933446361236A226959
:1028080093422DD99B1B23626378002B45D1B5F8E1
:10281800503015FA83F3227803EBC203B3F802248D
:10282800C2F30902A3F802243E2E1DD9710916F03D
:102838001F0F00D10139B3F8022492B2890289B27C
:102848000A4342F40042A3F8022428E0B5F85020D5
:1028580015FA82F202EBC303B2B2A3F80624C4E766
:10286800002222621E46CFE74EB9B3F802246FEA6F
:1028780042426FEA524292B2A3F802240FE0720871
:1028880016F0010F00D00132B3F8021489B2920297
:1028980092B20A43A3F8022401E0012B06D0B3B296
:1028A800228961692846FFF79DFE35E7B5F8503063
:1028B80015FA83F3227803EBC203B2B2A3F8022419
:1028C800EDE76278B2BBB5F8502015FA82F202EB58
:1028D800C303B3F80224C2F30902A3F802243E2E6C
:1028E8000FD9710916F01F0F00D10139B3F802246E
:1028F80092B2890289B20A4342F40042A3F8022440
:102908001AE04EB9B3F802246FEA42426FEA524223
:1029180092B2A3F802240FE0720816F0010F00D05B
:102928000132B3F8021489B2920292B20A43A3F8B0
:10293800022401E0012A30D0B3B222896169284615
:10294800FFF750FE636933446361236A2269934247
:102958002DD99B1B23626378002B45D1B5F85030E5
:1029680015FA83F3227803EBC203B3F80624C2F303
:102978000902A3F806243E2E1DD9710916F01F0F6F
:1029880000D10139B3F8062492B2890289B20A4308
:1029980042F40042A3F8062428E0B5F8502015FABE
:1029A80082F202EBC303B2B2A3F80224C4E7002206
:1029B80022621E46CFE74EB9B3F806246FEA4242B8
:1029C8006FEA524292B2A3F806240FE0720816F09A
:1029D800010F00D00132B3F8061489B2920292B204
:1029E8000A43A3F8062401E0012B06D0B3B262899A
:1029F80061692846FFF7F6FD8EE6B5F8503015FAFE
:102A080083F3227803EBC203B2B2A3F80624EDE7FE
:102A1800217835F8212092B222F4E24222F07002A5
:102A280042F4004242F0800225F82120B5F85020F7
:102A380015FA82F2217802EBC1029BB2A2F80234A5
:102A4800228961692846FFF7CDFD65E64EB9B3F8DE
:102A580006246FEA42426FEA524292B2A3F8062471
:102A680016E0720816F0010F00D00132B3F8061410
:102A780089B2920292B20A43A3F8062408E0B5F894
:102A8800502015FA82F202EBC303B2B2A3F806246F
:102A9800B3B2628961692846FFF7A4FD3CE6B2BB80
:102AA800B5F8502015FA82F202EBC303B3F80224FA
:102AB800C2F30902A3F802243E2E0FD9710916F0B9
:102AC8001F0F00D10139B3F8022492B2890289B2EA
:102AD8000A4342F40042A3F8022421E04EB9B3F8B5
:102AE80002246FEA42426FEA524292B2A3F80224E9
:102AF80016E0720816F0010F00D00132B3F8021484
:102B080089B2920292B20A43A3F8022408E0B5F807
:102B1800502015FA82F202EBC303B2B2A3F80224E2
:102B2800B3B2228961692846FFF75CFDF4E500220B
:102B38008A611A4679E54AB9B3F806246FEA42422F
:102B48006FEA524292B2A3F806248DE5510812F0BA
:102B5800010F00D00131B3F8062492B2890289B27C
:102B68000A43A3F806247FE5CB78022B4DD0012B2E
:102B780040F02F8189692369994240F2E680C91A99
:102B8800A161F2B9B5F8502015FA82F2217802EB6A
:102B9800C102B2F80214C1F30901A2F802143E2BD3
:102BA80040F2D780580913F01F0F00D10138B2F84E
:102BB800021489B2800280B2014341F40041A2F8B4
:102BC80002146278002A40F0F680B5F8502015FA11
:102BD80082F2217802EBC102B2F80614C1F30901AE
:102BE800A2F806143E2B40F2CD80590913F01F0FAE
:102BF80000D10139B2F806349BB2890289B20B437D
:102C080043F40043A2F806342EE5F2B9B0F8503088
:102C180010FA83F30A7803EBC203B3F80224C2F371
:102C28000902A3F802240A693E2A31D9510912F08F
:102C38001F0F00D10139B3F8022492B2890289B278
:102C48000A4342F40042A3F802246378002B51D1CE
:102C5800B5F8503015FA83F3227803EBC203B3F8C2
:102C68000624C2F30902A3F8062422693E2A28D9B9
:102C7800510912F01F0F00D10139B3F8062492B29E
:102C8800890289B20A4342F40042A3F8062433E0D9
:102C98004AB9B3F802246FEA42426FEA524292B24A
:102CA800A3F80224D1E7510812F0010F00D0013136
:102CB800B3F8022490B28A0292B20243A3F8022423
:102CC800C3E74AB9B3F806246FEA42426FEA5242B0
:102CD80092B2A3F806240FE0510812F0010F00D0B9
:102CE8000131B3F8062490B28A0292B20243A3F8E3
:102CF800062401E0012B1DD0E369002B3FF4B4AC9E
:102D0800227835F8221044F2400303EA01008B438D
:102D180002D000287FF4A8AC35F822309BB223F407
:102D2800E04323F0700343F4004343F0C00325F865
:102D3800223099E4B5F8503015FA83F3227803EB82
:102D4800C203228AA3F80624D6E70023A3610B4610
:102D580017E74BB9B2F802146FEA41416FEA5141E3
:102D680089B2A2F802142CE7590813F0010F00D019
:102D78000131B2F8020480B2890289B20143A2F893
:102D880002141EE74BB9B2F806346FEA43436FEA00
:102D980053439BB2A2F8063466E4590813F0010FB6
:102DA80000D00131B2F8063498B28B029BB20343CB
:102DB800A2F8063458E4012A7FF456ACB5F850203E
:102DC80015FA82F2217802EBC1029BB2A2F806340E
:102DD8004AE4012059E410B45C08024402F5806218
:102DE80007E032F8020B0870C0F307204870023180
:102DF800013C002CF5D113F0010F01D013880B70A2
:102E08005DF8044B704738B512F4804F43D004681E
:102E1800B4F8503091F800C04FEACC0E1EFA83F394
:102E28002344B3F80244C4F309048B69A34228D3AA
:102E38001B1B8B618B697BB9056835F82C309BB2FD
:102E480023F4804323F0700383F4005343F40043D6
:102E580043F0800325F82C3012F0400F0ED00268A2
:102E68000D7832F825309BB223F4E04323F0700349
:102E780043F4004343F0C00322F8253024B9204628
:102E880038BD00238B61D5E723460A894969006864
:102E9800FFF7A1FFF3E70468B4F8503091F800C0D9
:102EA8004FEACC0E1EFA83F32344B3F80644C4F366
:102EB80009048B69A3422FD31B1B8B618B697BB9D8
:102EC800056835F82C309BB223F4804323F0700357
:102ED80083F4005343F4004343F0800325F82C3077
:102EE80012F0400F0FD1026891F800C032F82C3070
:102EF8009BB223F4E04323F0700343F4004343F010
:102F0800C00322F82C30002CB9D023464A894969DD
:102F18000068FFF760FFB2E700238B61CEE7002867
:102F280060D030B587B0044690F8A9323BB103238E
:102F380084F8A9322068FEF7E8FF00231BE080F838
:102F4800A832FEF7BDFEF2E75A1C02EB820104EB41
:102F5800C1010120487002EB820104F8313004EB12
:102F6800C1000021C17003EB830004EBC000816342
:102F7800C1630164D3B260688342E5D3002316E0DD
:102F880003EB830204EBC202002182F8691182F884
:102F9800683182F86B11C2F87811C2F87C1103EB22
:102FA800830204EBC202C2F880110133DBB29842FB
:102FB800E6D8A4465CF8105BEE46BCE80F00AEE825
:102FC8000F00DCF80030CEF80030231D0ECB284669
:102FD800FEF7A5FF002084F82400012384F8A93215
:102FE80007B030BD0120704738B590F8A832012BE2
:102FF80011D00446012580F8A8520068FEF77CFF2E
:1030080029462046FEF777FF2068FFF7E5FA0020FB
:1030180084F8A80238BD0220FCE770B505460C46C6
:10302800164612F0400F00F00A810268B2F85030DC
:103038000978C80010FA83F31344B3F80224C2F3E2
:103048000902A36993424DD99B1AA361A369002B76
:1030580064D16378002B48D12A68B2F8503012FA4C
:1030680083F30344B3F80224C2F30902A3F8022449
:10307800B3F802246FEA42426FEA524292B2A3F8CE
:1030880002242A686378002B3BD1B2F8503012FA38
:1030980083F3227803EBC203B3F80624C2F30902D0
:1030A800A3F80624B3F806246FEA42426FEA5242B4
:1030B80092B2A3F8062421782846FEF73BFE16F4C0
:1030C800804F40D02A68217832F821309BB223F40F
:1030D800E04323F0700343F4404343F0800322F8B5
:1030E800213030E00023A361B0E7012BC9D12A6861
:1030F800B2F8503012FA83F303440022A3F80224F2
:10310800BFE7012BD7D1B2F8503012FA83F32278F7
:1031180003EBC2030022A3F80624CCE716F4804F81
:103128000DD0286830F821309BB223F4E04323F017
:10313800700343F4404343F0800320F8213094F8AF
:103148002430012B12D02A68217832F821309BB222
:1031580023F4E04323F0400383F0300343F40043B7
:1031680043F0800322F82130002070BD63691344C6
:103178006361E3691344E361216A2369994224D3B3
:10318800C91A21626278002A44D12968B1F850200E
:1031980011FA82F2217802EBC102B2F80214C1F3EB
:1031A8000901A2F802143E2B1BD9580913F01F0F6E
:1031B80000D10138B2F8021489B2800280B201430A
:1031C80041F40041A2F8021426E021B9002384F852
:1031D80024301346D6E7002384F8243023620B46B4
:1031E800D0E74BB9B2F802146FEA41416FEA514196
:1031F80089B2A2F802140FE0590813F0010F00D0A9
:103208000131B2F8020480B2890289B20143A2F8FE
:10321800021401E0012A06D09BB22289616928685C
:10322800FFF7E0F98FE72968B1F8502011FA82F228
:10323800217802EBC10299B2A2F80214ECE7026805
:10324800B2F850300978C80010FA83F31344B3F881
:103258000624C2F30902A36993424ED39B1AA361C1
:10326800A369002B65D16378002B49D12A68B2F88D
:10327800503012FA83F30344B3F80224C2F309026C
:10328800A3F80224B3F802246FEA42426FEA5242DA
:1032980092B2A3F802242A686378002B3CD1B2F8D2
:1032A800503012FA83F3227803EBC203B3F80624F2
:1032B800C2F30902A3F80624B3F806246FEA4242CF
:1032C8006FEA524292B2A3F8062421782846FEF704
:1032D80031FD16F4804F7FF436AF2A68217832F832
:1032E80021309BB223F4E04323F0700343F44043BE
:1032F80043F0800322F8213025E70023A361AFE7DC
:10330800012BC8D12A68B2F8503012FA83F303446B
:103318000022A3F80224BEE7012BD6D1B2F8503020
:1033280012FA83F3227803EBC2030022A3F80624DF
:10333800CBE716F4804F0DD1286830F821309BB2C6
:1033480023F4E04323F0700343F4404343F0800345
:1033580020F8213094F82430012B7FF4F4AE63690F
:1033680013446361E3691344E361216A2369994261
:1033780024D3C91A216229686278002A43D1B1F896
:10338800502011FA82F2217802EBC102B2F8061439
:10339800C1F30901A2F806143E2B1BD9580913F0F2
:1033A8001F0F00D10138B2F8061489B2800280B22A
:1033B800014341F40041A2F8061426E021B9002394
:1033C80084F824301346D6E70023236284F8243097
:1033D8000B46D0E74BB9B2F806146FEA41416FEAE1
:1033E800514189B2A2F806140FE0590813F0010FF1
:1033F80000D00131B2F8060480B2890289B20143D3
:10340800A2F8061401E0012A06D09BB2628961691C
:103418002868FFF7E7F896E6B1F8502011FA82F22B
:10342800217802EBC10299B2A2F80614EDE72DE962
:10343800F04105462868B0F8443013F4004F00F016
:103448008382B0F84440A3B214F00F0440F0DC804B
:1034580013F0100F69D003889AB213F4006F40F08C
:10346800998012F4004FE5D0038823F070031B0500
:103478001B0D43F0800303802868B0F8503095F89E
:103488006821D20012FA83F30344B3F80634C3F375
:103498000903C5F884318BB1D5F87C1171B1B5F841
:1034A8006E21FFF798FCD5F87C31D5F884211344B8
:1034B800C5F87C3100212846FEF730FC2A681388BD
:1034C80099B213F4006FB5D101F44051B1F5405FE2
:1034D800B0D0B2F8503012FA83F3B3F80624C2F32E
:1034E8000902A3F80624D5F878213E2A73D9510990
:1034F80012F01F0F00D10139B3F8062492B28902E5
:1035080089B20A4342F40042A3F806242A681388C1
:103518009BB223F4804323F0700383F4405343F4B5
:10352800004343F08003138084E703889BB223F4AD
:10353800E14323F070036FEA43436FEA53439BB2BE
:1035480003802968B1F8503095F82820D20012FA83
:1035580083F30B44B3F80234C3F309036B64EA6BD7
:103568001A44EA6300212846FEF7E4FB95F8243064
:10357800002B3FF45FAF2B6C002B7FF45BAF95F80B
:1035880024302A6843F08003A2F84C30002385F8E1
:1035980024304FE7B0F8503095F86821D20012FA7D
:1035A80083F30344B3F80634C3F30903C5F884313D
:1035B800B5F86E2105F52C71FFF70DFC2A68138804
:1035C80023F070031B051B0D43F08003138028466E
:1035D800FEF79CFB2EE74AB9B3F806246FEA42428D
:1035E8006FEA524292B2A3F806248FE7510812F00C
:1035F800010F00D00131B3F8062490B28A0292B2CA
:103608000243A3F8062481E730F824309EB213F46D
:10361800004F4AD116F0800F3FF40CAF621C02EB4A
:10362800820105EBC101286830F824309BB223F4ED
:10363800E14323F070036FEA43436FEA53439BB2BD
:1036480020F82430CB78012B00F0E98016F4807F35
:1036580040F075812868B0F85030621C02EB820295
:1036680015F83260F20012FA83F30344B3F8023417
:10367800C3F3090304EB840205EBC202126C9A42FD
:1036880040F2458104EB840705EBC707D21A3A6478
:1036980004EB840205EBC202126C002A40F03E8162
:1036A80031462846FEF746FBC4E630F8243023F0BE
:1036B80070031B051B0D43F0800320F8243004EB36
:1036C8008401C90001F5B47105EB010804EB84031A
:1036D80005EBC30393F87431002B40D12868B0F888
:1036E800503004EB840205EBC20292F86821D20044
:1036F80012FA83F30344B3F80674C7F3090717BB38
:1037080004EB840305EBC303D3F884213A44C3F8DC
:103718008421D3F87C213A44C3F87C21D3F8803142
:103728003BB104EB840305EBC303D3F878319F4224
:1037380070D204EB840305EBC30393F868112846A1
:10374800FEF7ECFA66E704EB840105EBC1013B46A2
:10375800B1F86E21D1F87C11FFF73DFBD0E704EBFF
:10376800840305EBC30393F86B31022B33D029682C
:1037780004EB840205EBC20292F8680131F82030AC
:103788009BB223F4E04323F0700343F4004343F077
:10379800C00321F82030286892F8683130F82320D7
:1037A80012F4804F1ED0B0F85020DB0013FA82F3D9
:1037B8000344B3F80274C7F30907002FA0D004EB41
:1037C800840105EBC1013B46B1F87021D1F87C11A9
:1037D800FFF701FB94E7324641462846FFF713FB03
:1037E80007468DE7B0F85020DB0013FA82F3034454
:1037F800B3F80674C7F30907002F81D004EB8401DE
:1038080005EBC1013B46B1F87221D1F87C11FFF7F5
:10381800E2FA75E741462868FEF7F6FEFAE604EB99
:10382800840305EBC30300221A6493F83430FBB118
:1038380016F0400F37D04B781BBB2A68B2F85030CF
:1038480012FA83F3621C02EB820215F8322003EBB2
:10385800C203B3F80224C2F30902A3F80224B3F89E
:1038680002246FEA42426FEA524292B2A3F802245B
:10387800013404EB840415F834102846FEF75AFA8C
:10388800D8E5012BF4D12A68B2F8503012FA83F344
:10389800621C02EB820215F8322003EBC2030022FD
:1038A800A3F80224E4E72A68631C03EB830305EB0F
:1038B800C3035B78D3B9B2F8503012FA83F3621CB1
:1038C80002EB820215F8322003EBC203B3F8062498
:1038D800C2F30902A3F80624B3F806246FEA4242A9
:1038E8006FEA524292B2A3F80624C1E7012BBFD176
:1038F800B2F8503012FA83F3621C02EB820215F818
:10390800322003EBC2030022A3F80624B0E704EB3D
:10391800840205EBC20200271764B9E604EB8402AF
:1039280005EBC202D66B1E44D663526C04EB8404CA
:1039380005EBC40413446364FEF766FE7AE5324679
:103948002846FFF76AFB75E50020BDE8F08190F88E
:10395800A832012B0DD010B50446012380F8A832F7
:1039680080F824100068FEF731FE002084F8A802D1
:1039780010BD0220704710B504460068FEF72EFE01
:1039880010F4004F1ED110F4806F1FD110F4804F37
:103998002DD110F4005F34D110F4805F3BD110F4C6
:1039A800006F57D110F4007F71D110F4807F27D0B9
:1039B8002268B2F844309BB223F480739BB2A2F819
:1039C80044301DE02046FFF732FD19E02268B2F8C6
:1039D80044309BB223F480639BB2A2F84430204663
:1039E800FEF7B9F900212046FFF7B1FF08E0226889
:1039F800B2F844309BB223F480439BB2A2F844301F
:103A080010BD2268B2F844309BB223F400539BB235
:103A1800A2F84430F4E72268B2F840309BB223F0B1
:103A280004039BB2A2F840302268B2F840309BB23F
:103A380023F008039BB2A2F840302046FEF7AEF907
:103A48002268B2F844309BB223F480539BB2A2F8A8
:103A58004430D5E72268B2F840309BB243F00803FF
:103A6800A2F840302268B2F844309BB223F40063D5
:103A78009BB2A2F844302268B2F840309BB243F0BF
:103A88000403A2F840302046FEF778F9B8E7226828
:103A9800B2F844309BB223F400739BB2A2F84430CE
:103AA8002046FEF752F9ABE710B50446084611F078
:103AB800800F25D101F0070C0CEB8C01C90001F532
:103AC800B47E04EB0E010CEB8C0C04EBCC0C4FF029
:103AD800000E8CF869E100F0070008700A61CB70ED
:103AE800022B1AD094F8A832012B19D0012384F89C
:103AF800A8322068FEF724FA002084F8A80210BD36
:103B080001F0070C0CF1010C0CEB8C0104EBC1016A
:103B18004FF0010E81F801E0DDE700230B71E1E7CA
:103B28000220ECE710B504460B4611F0800F1FD1B8
:103B380001F0070202EB8201C90001F5B4710144EA
:103B480002EB820200EBC202002082F8690103F056
:103B580007030B7094F8A832012B13D0012384F8C3
:103B6800A8322068FEF7D1FB002084F8A80210BD17
:103B780001F00702013202EB820100EBC1010120D2
:103B88004870E4E70220F2E710B501F0070C0CEBEF
:103B98008C01C90001F5B4710CEB8C0E00EBCE0E54
:103BA800CEF87C21CEF880310024CEF884418EF8FE
:103BB80069418EF868C101440068FEF725FD20467A
:103BC80010BD01F0070101EB810100EBC100D0F845
:103BD8008401704738B501F0070404F1010C0CEBBF
:103BE8008C0104EB840E00EBCE0ECEF83C20CEF810
:103BF800403001228EF84C20CEF848300025CEF80F
:103C0800445000EBC1035A7000F83140194600686F
:103C1800FEF7FAFC284638BD0B4601F0070241685A
:103C28008A422AD810B5044613F0800F1DD103EB41
:103C38008301C90001F5B471014403EB830300EB70
:103C4800C303002083F8690101238B700A7094F87C
:103C5800A832012B13D0012384F8A8322068FEF77C
:103C68003FFC002084F8A80210BD531C03EB83011D
:103C780000EBC10101204870E6E7012070470220EF
:103C8800F2E70B4601F00F014268914230D810B5B7
:103C9800044613F0800F21D103F0070202EB8201E2
:103CA800C90001F5B471014402EB820200EBC202C3
:103CB800002082F8690100228A7003F007030B7064
:103CC80094F8A832012B15D0012384F8A832206873
:103CD800FEF72BFC002084F8A80210BD03F00702B1
:103CE800013202EB820100EBC10101204870E2E7DA
:103CF800012070470220F0E711F0800F0BD001F08F
:103D08000701013101EB810100EBC10052B90273D7
:103D1800C3800020704701EB8101C90001F5B4712F
:103D28000844F3E70122027303811B0C4381F0E787
:103D380010B504460E4B1A784FF47A73B3FBF2F3BE
:103D48000C4A1068B0FBF3F001F040F868B90F2C8A
:103D580001D901200AE0002221464FF0FF3001F08E
:103D680017F8054B1C60002000E0012010BD00BFC3
:103D780088000020900000208C00002008B5074A29
:103D8800136843F010031360032000F0EFFF0F20C7
:103D9800FFF7CEFFFDF788FE002008BD0020024097
:103DA800034A1168034B1B780B441360704700BF2C
:103DB800B00F002088000020014B1868704700BF32
:103DC800B00F002038B50446FFF7F6FF0546B4F1FA
:103DD800FF3F02D0044B1B781C44FFF7EDFF401B4C
:103DE800A042FAD338BD00BF88000020002800F0A8
:103DF800FF8270B582B00446036813F0010F3BD010
:103E0800B44B5B6803F00C03042B1ED0B14B5B680A
:103E180003F00C03082B13D06368B3F5803F68D018
:103E2800002B40F0928003F1804303F504331A68B5
:103E380022F480321A601A6822F480221A605DE047
:103E4800A44B5B6813F4803FE6D04FF4003393FA39
:103E5800A3F3A04B19684FF4003393FAA3F3B3FA12
:103E680083F303F01F03012202FA03F30B4203D08A
:103E78006368002B00F0BE82236813F0020F00F085
:103E8800C480944B5B6813F00C0F00F09C80914B3E
:103E98005B6803F00C03082B00F08F802369002B6C
:103EA80000F0F080012292FAA2F3B3FA83F303F14F
:103EB800845303F584139B001A60FFF77DFF0546C2
:103EC800022393FAA3F3834B1968022393FAA3F30B
:103ED800B3FA83F303F01F03012202FA03F30B4240
:103EE80040F0C280FFF768FF401B0228E8D9032092
:103EF80089E2784A136843F480331360754AD36AB9
:103F080023F00F03A1680B43D3626368002B36D0FC
:103F1800FFF752FF05464FF4003393FAA3F36D4BB6
:103F280019684FF4003393FAA3F3B3FA83F303F059
:103F38001F03012202FA03F30B429DD1FFF73CFF56
:103F4800401B6428E7D903205DE2B3F5A02F09D010
:103F5800604B1A6822F480321A601A6822F48022B0
:103F68001A60CBE703F18043A3F53C331A6842F4A7
:103F780080221A601A6842F480321A60BEE7FFF79E
:103F88001BFF05464FF4003393FAA3F3514B19680E
:103F98004FF4003393FAA3F3B3FA83F303F01F0348
:103FA800012202FA03F30B423FF466AFFFF704FF66
:103FB800401B6428E6D9032025E2464B5B6813F4CE
:103FC800803F7FF46BAF022393FAA3F3414B196848
:103FD800022393FAA3F3B3FA83F303F01F03012236
:103FE80002FA03F30B4203D02369934240F00482A0
:103FF8003848036823F0F8036169F82292FAA2F2BC
:10400800B2FA82F291400B430360236813F0080F61
:1040180000F08C80A369002B60D0012191FAA1F2F5
:10402800B2FA82F22C4B13449B001960FFF7C4FECE
:104038000546022393FAA3F293FAA3F293FAA3F2A2
:10404800244A516A93FAA3F3B3FA83F303F01F03E4
:10405800012202FA03F30B4268D1FFF7ADFE401BC1
:104068000228E6D90320CEE11A48036823F0F803B2
:104078006169F82292FAA2F2B2FA82F291400B43F5
:104088000360C2E7012393FAA3F3B3FA83F303F1BE
:10409800845303F584139B0000221A60FFF78CFEFB
:1040A8000546022393FAA3F30A4B1968022393FAED
:1040B800A3F3B3FA83F303F01F03012202FA03F315
:1040C8000B42A2D0FFF778FE401B0228E9D9032053
:1040D80099E100BF0010024020819010012292FA5D
:1040E800A2F2B2FA82F2B74B13449B0000221A6084
:1040F800FFF762FE0546022393FAA3F293FAA3F2AE
:1041080093FAA3F2B04A516A93FAA3F3B3FA83F38A
:1041180003F01F03012202FA03F30B4206D0FFF754
:104128004BFE401B0228E6D903206CE1236813F0FC
:10413800040F00F0A980A44BDB6913F0805F20D145
:10414800A14BDA6942F08052DA61DB6903F08053EF
:104158000193019B01259D4B1B6813F4807F12D0AE
:10416800E368012B23D073BB03F1804303F50433C9
:104178001A6A22F001021A621A6A22F004021A620A
:104188001AE00025E7E7914A136843F48073136047
:10419800FFF712FE06468D4B1B6813F4807FDFD1B4
:1041A800FFF70AFE801B6428F5D903202BE1864A15
:1041B800136A43F001031362E368002B3CD0FFF756
:1041C800FBFD06462EE0052B09D07F4B1A6A22F02C
:1041D80001021A621A6A22F004021A62ECE77A4BA8
:1041E8001A6A42F004021A621A6A42F001021A625A
:1041F800E2E7022393FAA3F3734B596A022393FA73
:10420800A3F3B3FA83F303F01F03012202FA03F3C3
:10421800194238D1FFF7D0FD801B41F2883398420C
:1042280000F2EC80022393FAA3F293FAA3F3002B93
:10423800DFD0654B196AE1E7FFF7BEFD064618E0D7
:10424800022393FAA3F3604B596A022393FAA3F368
:10425800B3FA83F303F01F03012202FA03F31942AE
:1042680011D0FFF7A9FD801B41F28833984200F274
:10427800C780022393FAA3F293FAA3F3002BDFD0AB
:10428800514B196AE1E7B5BBE369002B00F0BA802E
:104298004D4A526802F00C02082A00F09980022B5D
:1042A8002FD04FF0807393FAA3F3B3FA83F303F19B
:1042B800845303F584139B0000221A60FFF77CFDEA
:1042C80004464FF0007393FAA3F33F4B19684FF07D
:1042D800007393FAA3F3B3FA83F303F01F030122E5
:1042E80002FA03F319426BD0FFF766FD001B0228A0
:1042F800E7D9032087E0344AD36923F08053D36198
:10430800C2E74FF0807393FAA3F3B3FA83F303F190
:10431800845303F584139B0000221A60FFF74CFDB9
:1043280005464FF0007393FAA3F3274B19684FF033
:10433800007393FAA3F3B3FA83F303F01F03012284
:1043480002FA03F3194206D0FFF736FD401B022894
:10435800E7D9032057E01C494B6823F47413626AB9
:10436800206A024313434B604FF0807393FAA3F320
:10437800B3FA83F303F1845303F584139B000122FA
:104388001A60FFF719FD04464FF0007393FAA3F380
:104398000D4B19684FF0007393FAA3F3B3FA83F344
:1043A80003F01F03012202FA03F3194206D1FFF7B3
:1043B80003FD001B0228E7D9032024E0002022E0A7
:1043C800002020E020819010001002400070004082
:1043D800012B1AD0104B5B6803F48031226A91429A
:1043E80015D103F47013626A934212D100200AE0D7
:1043F80001207047012006E0012004E0032002E0CC
:10440800032000E0002002B070BD0120FBE701207E
:10441800F9E70120F7E700BF00100240164B5B6880
:1044280003F00C02082A01D01448704703F47011F5
:104438004FF4701292FAA2F2B2FA82F221FA02F260
:104448000F49885C0C4AD26A02F00F020F2191FAD8
:10445800A1F1B1FA81F1CA400A498A5C13F4803F9C
:1044680005D0064BB3FBF2F303FB00F07047064B95
:1044780003FB00F0704700BF0010024000127A00F2
:10448800A48200089482000800093D00002800F07A
:10449800BE8070B50D460446614B1B6803F00703E8
:1044A8008B420BD25E4A136823F007030B43136059
:1044B800136803F007038B4240F0AB80236813F0C6
:1044C800020F06D0574A536823F0F003A1680B4344
:1044D8005360236813F0010F5AD06368012B2DD065
:1044E800022B40D0022292FAA2F24E4A106802220F
:1044F80092FAA2F2B2FA82F202F01F02012101FA44
:1045080002F2104200F0878046494A6822F003020E
:1045180013434B60FFF750FC0646424B5B6803F0C1
:104528000C036268B3EB820F32D0FFF745FC801BA7
:1045380041F288339842F0D9032067E04FF4003203
:1045480092FAA2F2374A10684FF4003292FAA2F2B5
:10455800B2FA82F202F01F02012101FA02F20242CB
:10456800D2D1012052E04FF0007292FAA2F22D4A05
:1045780010684FF0007292FAA2F2B2FA82F202F0D8
:104588001F02012101FA02F21042BDD101203DE0D3
:10459800234B1B6803F00703AB420AD9204A136870
:1045A80023F007032B431360136803F00703AB42A0
:1045B80033D1236813F0040F06D01A4A536823F442
:1045C800E063E1680B435360236813F0080F07D0DA
:1045D800144A536823F46053216943EAC1035360C2
:1045E800FFF71CFF0F4B5B6803F0F003F02292FA11
:1045F800A2F2B2FA82F2D3400B4AD35CD8400B4BFA
:1046080018600B4B1868FFF793FB002070BD012062
:1046180070470120FAE70120F8E70120F6E700BF1C
:104628000020024000100240BC82000890000020D8
:104638008C000020014B1868704700BF90000020D4
:1046480008B5FFF7F7FF074B5B6803F4E0634FF427
:10465800E06292FAA2F2B2FA82F2D340024AD35C42
:10466800D84008BD00100240B482000808B5FFF722
:10467800E1FF074B5B6803F460534FF4605292FA12
:10468800A2F2B2FA82F2D340024AD35CD84008BD03
:1046980000100240B4820008F0B583B004460368F5
:1046A80013F4803F48D0864BDB6913F0805F40F0FD
:1046B800BE80834BDA6942F08052DA61DB6903F02D
:1046C80080530193019B01257E4B1B6813F4807F67
:1046D80000F0AF807A4B1B6A13F4407322D06268F3
:1046E80002F440729A421DD07548016A21F440765E
:1046F8004FF4803393FAA3F2B2FA82F2724F3A443B
:1047080092004FF0010CC2F800C093FAA3F3B3FA79
:1047180083F33B449B0000221A60066211F0010FEC
:1047280040F09C80664A136A23F4407361680B4327
:104738001362002D40F0B980236813F0010F06D0F2
:104748005F4A136B23F00303A1680B4313632368C9
:1047580013F0200F06D05A4A136B23F01003E168B8
:104768000B431363236813F4003F06D0544A53687D
:1047780023F48003216B0B435360236813F0400F2D
:1047880006D04F4A136B23F0200321690B431363B0
:10479800236813F4004F06D0494A136B23F04003F3
:1047A80061690B431363236813F4007F06D0444AFE
:1047B800536823F40003E1690B435360236813F043
:1047C800800F06D03E4AD36A23F4F873A1690B43DD
:1047D800D362236813F4805F06D0394A136B23F43D
:1047E8008073216A0B431363236813F4802F06D068
:1047F800334A136B23F48063616A0B4313632368A2
:1048080013F4002F06D02E4A136B23F40063A16A19
:104818000B431363236813F4801F4DD0284A136B8E
:1048280023F40053E16A0B431363002045E000259D
:104838004AE7244A136843F480731360FFF7BCFA0D
:104848000646204B1B6813F4807F7FF443AFFFF7C5
:10485800B3FA801B6428F4D903202EE0FFF7ACFAE2
:10486800064618E0022393FAA3F3154B596A02236C
:1048780093FAA3F3B3FA83F303F01F03012202FAB6
:1048880003F30B427FF44EAFFFF796FA801B41F219
:10489800883398420ED8022393FAA3F293FAA3F32B
:1048A800002BDFD0064B196AE1E7D36923F0805368
:1048B800D36141E7032000E0002003B0F0BD00BF52
:1048C800001002400070004000819010F0B583B0E5
:1048D800002362E085685E000324B44025EA0405ED
:1048E800CC68B4402C438460456825EA0C054C68C4
:1048F800C4F300149C402C4344605FE0DD08083595
:1049080050F8254003F0070C4FEA8C0C4FF00F0EBF
:104918000EFA0CFE24EA0E0E0C6904FA0CF444EAB2
:104928000E0440F8254060E0032400E0002404FA67
:104938000EF42C430CF1020C4F4D45F82C404F4C13
:10494800A568D44325EA02064F6817F4801F01D0F2
:1049580042EA0506494DAE60ED6804EA05064F686F
:1049680017F4001F01D042EA0506444DEE606D6859
:1049780004EA05064F6817F4003F01D042EA05062D
:104988003E4D6E602D682C404E6816F4803F01D075
:1049980042EA0504394A146001330A6832FA03F41A
:1049A80068D04FF0010C0CFA03FC1CEA0202F3D0A9
:1049B8004C6804F00304013C012C8BD94C6804F0CA
:1049C8000304032C0CD0C4685D004FF0030C0CFAF0
:1049D80005FC24EA0C0C8C68AC4044EA0C04C46066
:1049E8004C6804F00304022C88D004684FEA430E94
:1049F8004FF0030C0CFA0EFC24EA0C0C4C6804F083
:104A0800030404FA0EF444EA0C0404604C6814F439
:104A1800403FC1D01A4CA56945F00105A561A469BC
:104A280004F001040194019C4FEA930C0CF1020577
:104A3800114C54F8255003F0030E4FEA8E0E0F2444
:104A480004FA0EF425EA0405B0F1904F3FF46EAF76
:104A58000C4CA0420AD004F58064A04208D004F5AA
:104A68008064A0423FF460AF052460E701245EE75C
:104A780002245CE703B0F0BD0000014000040140DF
:104A880000100240000400480369194201D00120C7
:104A98007047002070470AB1816170478162704792
:104AA800436901EA030221EA030141EA0241816103
:104AB800704730B40124056CAC40C56B6C60046869
:104AC80063604368102B05D0036899600368DA6057
:104AD80030BC704703689A600368D960F8E7000043
:104AE8000268054B1344054AA2FB03231B099B00DC
:104AF8000364034BC3637047F8FFFDBFCDCCCCCC38
:104B08000000024010B310B50446022380F821309B
:104B180001680A686FF30D12436880680343E06810
:104B280003432069034360690343A0690343E069C1
:104B3800034313430B602046FFF7D2FF0020A06316
:104B4800012384F8213084F8200010BD012070472B
:104B580038B5044690F82000012831D0012084F8A7
:104B6800200094F82100012804D0002384F8203084
:104B7800022038BD022084F821000020A0632568A7
:104B8800286820F0010028602046FFF792FFE36ABA
:104B98005BB12268136843F00E0313602268136840
:104BA80043F0010313600020E3E72268136843F031
:104BB8000A0313602268136823F004031360EDE707
:104BC8000220D6E7034690F82120022A06D00422C4
:104BD8008263002280F820200120704701680A685B
:104BE80022F00E020A6001680A6822F001020A60D7
:104BF800026CC06B012101FA02F2426083F82110B5
:104C0800002083F82000704708B590F82130022B67
:104C180003D004238363012008BD0268136823F0CE
:104C28000E0313600268136823F001031360036C1A
:104C3800C16B012202FA03F34B6080F821200023A4
:104C480080F82030436B13B198470020E4E7002038
:104C5800E2E738B5C36B1A6804682568016C042359
:104C68008B40134213D015F0040F10D0236813F0B3
:104C7800200F03D1236823F004032360016CC26B67
:104C880004238B405360C36A03B1984738BD02239D
:104C98008B4013421AD015F0020F17D0236813F077
:104CA800200F06D1236823F00A032360012380F82C
:104CB8002130016CC26B02238B405360002380F8C3
:104CC8002030836A002BE1D09847DFE708238B4028
:104CD8001342DBD015F0080FD8D0236823F00E0359
:104CE8002360026CC16B012303FA02F24A608363FA
:104CF80080F82130002380F82030036B002BC5D0CA
:104D08009847C3E7002808DB0901C9B200F16040F1
:104D180000F5614080F80013704700F00F000901AA
:104D2800C9B2014B1954704714ED00E000B500F00A
:104D38000700C0F1070CBCF1040F28BF4FF0040CAA
:104D4800031D062B0FD9C31E4FF0FF3E0EFA0CF0C1
:104D580021EA000199400EFA03FE22EA0E0241EA16
:104D680002005DF804FB0023EEE70000074AD36861
:104D780023F4E0631B041B0C000200F4E06003430F
:104D880043F0BF6343F40033D360704700ED00E0A5
:104D980010B50446054BD868C0F30220FFF7C6FFDC
:104DA80001462046FFF7AEFF10BD00BF00ED00E052
:104DB800002807DB00F01F02400901239340024A44
:104DC80042F82030704700BF00E100E00138B0F140
:104DD800807F0BD24FF0E0235861054AF02182F81A
:104DE80023100020986107221A617047012070473C
:104DF80000ED00E0002859D010B5044690F8413085
:104E0800002B43D0242384F841302268136823F010
:104E1800010313606368226823F0706313612268DA
:104E2800936823F400439360E368012B33D0A368AD
:104E3800226843F404439360E368022B31D022686C
:104E4800536843F0007343F4004353602268D36807
:104E580023F40043D360236962691343A16922687C
:104E680043EA0123D360E369216A22680B43136094
:104E78002268136843F00103136000206064202354
:104E880084F84130206384F8420010BD80F8403037
:104E9800FBF7A8FDB6E7A368226843F400439360D4
:104EA800CAE723684FF400625A60C8E701207047D8
:104EB800034690F84120D2B2202A23D190F840200E
:104EC800012A21D0012280F84020242280F84120A4
:104ED8000068026822F0010202601868026822F481
:104EE80080520260186802681143016019680A68F4
:104EF80042F001020A60202283F84120002083F852
:104F0800400070470220704702207047034690F81F
:104F18004120D2B2202A21D190F84020012A1FD066
:104F2800012280F84020242280F84120006802688D
:104F380022F0010202601868026822F4706242EAF4
:104F48000122026019680A6842F001020A60202200
:104F580083F84120002083F8400070470220704702
:104F680002207047704770477047704738B502682D
:104F7800936803F00303012B01D0002038BD0446D9
:104F8800136813F0010F33D0936803F00D03012B5E
:104F980009D0036C43F010030364436C43F001032E
:104FA80043640120EAE7936843F0020393600368CF
:104FB80003221A60FEF700FF054623689B6813F07A
:104FC800010F13D0FEF7F8FE401B0228F5D923681D
:104FD8009B6813F0010FF0D0236C43F01003236497
:104FE800636C43F0010363640120C7E70020C5E751
:104FF8000020C3E738B504460268936803F003034A
:10500800012B0DD091681A4B19420FD0236C43F035
:1050180010032364636C43F001036364012038BD0B
:10502800136813F0010FEDD00020F8E7936843F000
:1050380001039360FEF7C0FE054623681B6813F062
:10504800010F13D1FEF7B8FE431B022BF5D92368D5
:105058001B6813F0010FF0D1236C43F01003236495
:10506800636C43F0010363640120D8E70020D6E7AE
:105078003F00008008B5406A036C43F040030364B6
:10508800436C43F004034364FFF76FFF08BD08B5A2
:10509800406AFFF768FF08BD08B5436A1A6C12F04A
:1050A800500F1AD11A6C42F400721A641A68D26846
:1050B80012F4406F0DD15A7E5AB91A6C22F48072DC
:1050C8001A641A6C12F4805F03D11A6C42F0010260
:1050D8001A641846FFF746FF08BD9B6B1B6B984781
:1050E800FAE7000030B597B000230193002800F0DC
:1050F800E1800446036C13F0100F52D1036CABB17E
:10510800002023689A6812F0805F03D09B6813F030
:10511800005F47D0236C23F0120343F0100323648D
:10512800636C43F00103636401203BE04364C364A0
:10513800836480F83C30FBF79DFB23689B6813F081
:10514800805F01D00020DCE72046FFF70FFF236CCB
:1051580013F0100FD5D10028D3D1236C23F4885332
:1051680023F0020343F0020323642268936823F0C8
:10517800405393602268936843F0805393604E4B8A
:105188001B684E4AA2FB03239B0C03EB83035B00C3
:10519800019302E0019B013B0193019B002BF9D194
:1051A800AFE70020236C13F0100F7AD1002878D1D4
:1051B80021688A6812F0040273D1236C23F4817386
:1051C80043F002032364002302938B6803F0030374
:1051D800012B45D03A498B6823F4403365682B434B
:1051E8008B60617E4B03656B012D01D04FF48052BB
:1051F8001343E2681343A268134394F82020012A5A
:1052080033D0A26A012A02D0E16A0A431343226812
:10521800916811F00C0F0CD1D16821F4804121F074
:105228000201D160217E94F83020520042EA813296
:1052380013432168CD68234A2A401A43CA60236968
:10524800012B25D02268136B23F00F03136300236F
:105258006364236C23F0030343F00103236427E012
:105268000B6813F0010FBCD1B4E731B9626A013A97
:1052780043EA424242F48033C3E7226C22F022021E
:1052880042F020022264626C42F001026264B8E7D4
:1052980021680B6B23F00F03E269013A13430B6398
:1052A800D5E7236C23F0120343F010032364012095
:1052B80017B030BD0120FBE79000002083DE1B43C0
:1052C8000003005007C0F0FFF8B50D460168896873
:1052D80011F0040F59D10446164690F83C30012BC2
:1052E80056D0012380F83C30FFF784FE074600289B
:1052F80047D1216C21F4706121F0010141F48071E2
:105308002164236C23F4801323642368DB6813F07F
:10531800007F05D0236C23F4405343F48053236467
:10532800236C13F4805F29D0636C23F00603636455
:10533800002384F83C30A36B164A9A62A36B164A82
:10534800DA62A36B154A1A6323681C221A60226862
:10535800536843F0100353602268D36843F0010395
:10536800D360216833462A464031A06BFFF7F0FB33
:105378002268936843F00403936007E000236364A2
:10538800D6E7002384F83C3000E002273846F8BD11
:105398000227FBE7A1500008975000087D5000083D
:1053A800704770477047704770B5044603681D68BA
:1053B8005E6815F0040F02D016F0040F05D115F041
:1053C800080F38D016F0080F35D0226C12F0100FE5
:1053D80003D1226C42F400722264D968DA6812F4AC
:1053E800406F22D111F4005F1FD115F0080F1CD0B7
:1053F8009A6812F0040F10D15A6822F00C025A6011
:10540800236C23F480732364236C13F4805F0CD122
:10541800236C43F00103236407E0236C43F010037B
:105428002364636C43F0010363642046FFF79AFD2D
:1054380023680C221A6015F0200F02D016F0200FF6
:1054480005D115F0400F40D016F0400F3DD0236C29
:1054580043F4005323642368D968DA6C12F0C00F50
:105468002DD111F0007F06D0DA6812F4406F26D1F2
:1054780011F4005F23D115F0400F20D0DA6812F440
:10548800001F1CD19A6812F0080F10D15A6822F038
:1054980060025A60236C23F480532364236C13F452
:1054A800807F0CD1236C43F00103236407E0236C55
:1054B80043F010032364636C43F0010363642046E4
:1054C800FFF76EFF236860221A6015F0800F02D084
:1054D80016F0800F33D115F4807F02D016F4807F48
:1054E80038D115F4007F02D016F4007F3ED115F0B4
:1054F800100F1DD016F0100F1AD0636B012B09D0B6
:105508002B4B9B6813F01F0F3CD12368DB6813F00B
:10551800010F0AD0236C43F480632364636C43F067
:10552800020363642046FFF720FD236810221A60F7
:1055380015F4806F02D016F4806F29D170BD236CEA
:1055480043F4803323642046FFF70EFD236880224E
:105558001A60C0E7236C43F4003323642046FFF746
:1055680021FF23684FF480721A60BAE7236C43F472
:10557800802323642046FFF716FF23684FF4007248
:105588001A60B4E70A4B9B6813F4404FCDD0C1E7CB
:10559800236C43F480432364636C43F0080363641F
:1055A80023684FF480621A602046FFF7FAFEC5E7C9
:1055B8000003005030B496B00022019290F83C20CD
:1055C800012A00F091810346012280F83C200068FE
:1055D800826812F0040F40F07C814A68042A35D8AA
:1055E800046B02EB420252004FF01F0C0CFA02FC53
:1055F80024EA0C0C0C6894404CEA04040463186810
:10560800826812F00C0F6BD10A68092A4FD9846995
:1056180002EB42021E3A4FF0070C0CFA02FC24EA95
:105628000C048D6805FA02F22243826148691C68FD
:10563800E268C2F3C102520090400A69013A032AA3
:1056480000F28D80DFE802F0426A7580092A10D8DE
:10565800446B02EB420252001E3A4FF01F0C0CFA48
:1056680002FC24EA0C040D6805FA02F222434263A4
:10567800C5E70E2A0DD8846B02EB420252003C3A71
:105688001F25954024EA05040D6895402C43846342
:10569800B5E7C46B02EB420252005A3A1F25954007
:1056A80024EA05040D6895402C43C463A7E74469C0
:1056B80002EB42024FF0070C0CFA02FC24EA0C043D
:1056C8008D6805FA02F222434261AFE7256E874AE8
:1056D8002A400D6840EA85652A4342F00042226666
:1056E8001868826802F00302012A68D0CA68012A91
:1056F8006BD0D0F8B02001240D68AC4022EA040237
:10570800C0F8B0200A68102A00F08680112A00F03C
:105718009980122A00F09C800020DFE0656E734AB1
:105728002A400D6840EA85652A4342F000426266D5
:10573800D6E7A56E6D4A2A400D6840EA85652A437A
:1057480042F00042A266CBE7E26E684D15400A6857
:1057580040EA8262154345F00045E566C0E7226EDF
:1057680002F0F8420868B2EB806F03D1226E22F093
:10577800004222661A68506E00F0F8400C68B0EBE0
:10578800846F03D1506E20F0004050661A68906E06
:1057980000F0F8400C68B0EB846F03D1906E20F0F5
:1057A800004090661A68D06E00F0F8400C68B0EBC4
:1057B800846F95D1D06E20F00040D06690E70268E3
:1057C80012F0010F92D0002088E0D0F8B0200D68C8
:1057D8000124AC402243C0F8B0200A68092A0DD938
:1057E8001D68A86902EB42021B3A0724944020EA8C
:1057F80004008C6894402043A86183E71D686869A9
:10580800013202EB42020724944020EA04008C682B
:1058180094402043686175E73549896811F4000FA1
:105828007FF474AF002102911868816801F00301C8
:10583800012914D0102A1CD0112A39D0122A41D09B
:1058480000204BE02A49896811F0807FEAD060E7A0
:105858002749896811F4800FE4D000203EE00168F0
:1058680011F0010FE6D01A6C42F020021A640120F0
:1058780034E0B0F1A04FDFD11D498A6842F400023C
:105888008A601C4A1268A1F14E61A1F58421A1F237
:105898007D41A1FB0212920C02EB8202520001929E
:1058A800019A1AB1019A013A0192F9E7002015E02C
:1058B800B0F1A04FC2D10E498A6842F080728A6066
:1058C80000200BE00A498A6842F480028A600020BE
:1058D80004E01A6C42F020021A640120002283F8C6
:1058E8003C2016B030BC70470220FAE700F0FF8376
:1058F800000300509000002070B497B0002201927D
:1059080090F83C20012A00F0DA810346012280F851
:105918003C200269002A33D08A69012A30D0C06C41
:1059280060B9DA6400229A640A6A012A00F08E805B
:10593800886901380243486A02439A64986C4A6845
:1059480002EB4202520002321F24944020EA040073
:105958000C68944040EA04029A64D86C0138D86410
:10596800002877D11C68E06C20F0FB4020F4EF00A1
:1059780020F4BF4020F07F000243E264002007E0EB
:105988004A68012A48D01A6C42F020021A640120A1
:105998001A68946814F0080F0FD14C7F002C5BD163
:1059A800D46824F440148D7F91F81CC04FEA0C5C35
:1059B8004CEA455C44EA0C04D4601A68946814F014
:1059C8000C0F7ED10C6A012C56D0D46824F00074D8
:1059D800D4604A7F012A57D00A68092A5AD91E6812
:1059E800B46902EB42021E3A0725954024EA0504F1
:1059F8008D6895402C43B4614C691D68EA68C2F310
:105A0800C102520094400A69013A032A00F29E80BA
:105A1800DFE802F04D7B86910A6A012A13D00868F4
:105A280042EA0022486A02431C68E06C20F0FB400E
:105A380020F4EF0020F4BF4020F07F001043E06422
:105A48009A640020A4E70A681202EDE78A69013A1D
:105A58009A6473E700209BE7D46824F440148D7F90
:105A680044EA4554D4600A7F012AA6D1186C40F054
:105A7800200018641046A0E7D46824F000744D7F15
:105A880044EA4564D460A7E7186C40F02000186425
:105A98001046A1E71E68746902EB4202072595408B
:105AA80024EA05048D6895402C437461A4E72E6EA2
:105AB800844A32400E6844EA8666324342F0004225
:105AC8002A661C68A26802F00302012A6ED0CA681E
